:020000040800F2
:10000000D00900209D01000897170008EF1600088E
:10001000951700082B080008E124000800000000E4
:10002000000000000000000000000000C51D0008E6
:1000300065080008000000006D1D00085D1E000836
:10004000B7010008B7010008B7010008B7010008B0
:10005000B7010008B7010008B7010008B7010008A0
:10006000B7010008B7010008B7010008B701000890
:10007000B7010008B7010008B7010008B701000880
:10008000B7010008B7010008B7010008B701000870
:10009000B7010008B7010008B7010008B701000860
:1000A000B7010008B7010008B7010008B701000850
:1000B000B7010008B51E0008B7010008B701000825
:1000C000B7010008B7010008B7010008B701000830
:1000D000B7010008E1230008B7010008B7010008D4
:1000E000B7010008B7010008B7010008B701000810
:1000F000B7010008B7010008B7010008B701000800
:10010000B7010008B7010008ED1E0008B70100089C
:10011000B7010008B7010008B7010008B7010008DF
:10012000B7010008B7010008B7010008B7010008CF
:10013000B7010008B7010008B7010008B7010008BF
:10014000B7010008B7010008B7010008B7010008AF
:10015000B7010008B7010008B7010008B70100089F
:10016000B7010008B7010008B7010008B70100088F
:10017000B7010008B7010008B7010008000000003F
:10018000B7010008B7010008DFF80CD000F0FCFA56
:1001900000480047812E0008D0090020064880470B
:1001A00006480047FEE7FEE7FEE7FEE7FEE7FEE75C
:1001B000FEE7FEE7FEE7FEE7611E00088901000892
:1001C0002DE9F04D81EA030404F0004B21F00045D5
:1001D00014464FF0000A23F0004150EA050220D0F7
:1001E00054EA01021DD0C5F30A570246C5F31303B2
:1001F000C1F31300C1F30A5640F4801543F4801391
:10020000A7EB0608101BD64608F2FD3873EB050075
:1002100002D308F1010801E092185B41B8F1000F28
:1002200003DA00200146BDE8F08D00204FF4801174
:10023000064684460EE0171B73EB050705D3121B19
:1002400063EB050306434CEA010C49084FEA300012
:1002500092185B4150EA0107EDD152EA030012D037
:1002600082EA040083EA0501084305D0101BAB4174
:1002700006D20122002306E000224FF0004302E0F4
:100280006FF0010253101AEB06004CEB085110EB13
:100290000A0041EB0B01BDE8F04D00F0CEB80EB501
:1002A000C10F80EAE0700844CA07002140F23343DE
:1002B0008DE80E000A460B4600F0CEF803B000BDF4
:1002C00000F0004230F000400AD0C10D01F560712D
:1002D000C0F3160042EA0151C208400711437047BB
:1002E00000200146704701F0004330B421F0004186
:1002F00050EA010206D00A0DA2F56072C1F31301A3
:10030000002A02DC30BC00207047440F44EAC104DC
:10031000C100E01830BC00EBC25000F057B830B557
:100320000B46014600202022012409E021FA02F5B3
:100330009D4205D303FA02F5491B04FA02F528444D
:10034000151EA2F10102F1DC30BD2DE9F05F05467A
:10035000002092469B4688460646814640241BE084
:10036000284641464746224600F020F853465A4662
:10037000C01A914110D311461846224600F016FAD1
:100380002D1A67EB01084F4622460120002100F09C
:100390000DFA17EB00094E41201EA4F10104DFDC29
:1003A000484631462A464346BDE8F09F202A04DBF2
:1003B000203A21FA02F00021704721FA02F3D040DE
:1003C000C2F1200291400843194670470029A8BF96
:1003D0007047401C490008BF20F00100704710B46E
:1003E000B0FA80FC00FA0CF050EA010404BF10BC23
:1003F000704749B1CCF1200421FA04F411FA0CF150
:1004000018BF012121430843A3EB0C01CB1D4FEA88
:1004100000614FEA102042BF002010BC704700EB83
:10042000C35010440029A4BF10BC7047401C4900B1
:1004300008BF20F0010010BC704710B5141E73F106
:10044000000408DA401C41F1000192185B411A4394
:1004500001D120F0010010BD2DE9F04D92469B46E0
:1004600011B1B1FA81F202E0B0FA80F22032904686
:1004700000F09CF904460F4640EA0A0041EA0B01ED
:1004800053465A46084313D0114653EA010019D087
:10049000C8F140025046FFF789FF05460E46504618
:1004A0005946424600F082F9084305D0012004E095
:1004B00020463946BDE8F08D0020054346EAE07647
:1004C0002C4337430A986305E40AA0EB0800002296
:1004D000FD0A44EA47540A3002D500200146E9E704
:1004E000010510196941DDE9084500196941BDE8B8
:1004F000F04DA2E72DE9FE4F804681EA0300C00FD0
:100500000C46009021F0004123F00045B8EB0200BA
:10051000A94105D24046214690461C460B4602465C
:1005200023F00040104347D0270DC7F30A00C3F360
:100530000A510290401A019040286BDAC3F313006D
:1005400040F4801B0098924620B10023D2EB030AAE
:1005500063EB0B0B01985946C0F14002504600F086
:1005600025F906460D4650465946019A00F02DF9E8
:1005700010EB08006141002487EA115284EAE77316
:100580001A4340D0009A62B3019A012A4FEA0752F7
:1005900015DC001B61EB02014FF0004202EA07523A
:1005A000CDE90042001C41F5801132462B46FFF791
:1005B00053FF03B0BDE8F08F40462146F9E7001B2A
:1005C00061EB0201001C41F5801300185B4120180B
:1005D000A2F5001747EB030140EAD570B6196D414B
:1005E00011E06D084FEA360645EAC0754FEA07523A
:1005F000001B61EB0201001C41F5801149084FEA24
:1006000030000019514132462B4603B0BDE8F04F8F
:10061000FFF713BF0098012240000023D0EB020235
:1006200063EBE073009821464FEAE074B8EB0000FA
:1006300061EB0401E9E783F000435BE781F00041EF
:1006400058E72DE9FE4F81EA030404F0004421F04D
:10065000004100944FF0000B23F0004350EA0104E6
:100660005ED052EA03045BD0C3F30A54C1F30A55C7
:100670002C44A4F2F3340194A0FB0254C1F31301FF
:1006800041F48011C3F3130343F4801301FB0244CC
:1006900000FB034E840A970A44EA815447EA8357D1
:1006A000A4FB076802958D0A05FB07854FEA932C8A
:1006B00004FB0C542705029D4FEA065847EA1637FB
:1006C000B5EB08056EEB070C870E920E47EA811713
:1006D00042EA8312A7FB0201B6EB0B0164EB0004B4
:1006E0002B0D43EA0C335E1844EB1C50DA4651469E
:1006F000E7FB0201C5F313044FEA0B3343EA14533B
:100700004FEA0432019C43EA0603A4F10C0402946C
:10071000009CCDE900B4FFF79FFE03B0BDE8F08F69
:1007200000200146F9E7C1F30A52C1F3130140F278
:10073000FF3341F480119A4202DA002001467047EB
:1007400040F233439A42A2F2334202DC5242FFF7B4
:100750002DBE00F02BB8000030B5041E71F100046E
:1007600004DB4FF00044404264EB0101141E73F1BE
:10077000000405DB1C464FF00043524263EB0403C8
:10078000994208BF904230BD064C074D06E0E06834
:1007900040F0010394E8070098471034AC42F6D3C8
:1007A000FFF7F6FCA4560008C4560008202A04DB14
:1007B000203A00FA02F1002070479140C2F1200374
:1007C00020FA03F3194390407047202A06DBCB1729
:1007D000203A41FA02F043EAE07306E041FA02F3FC
:1007E000D040C2F12002914008431946704710B52D
:1007F00000F0D0F90723022208214FF4A87001F07D
:10080000E3FAA82002F000FB4FF4E13002F054FBC1
:1008100001F006F8532140F2E73001F051FB00F0FF
:1008200073F8BDE8104000F063BFFEE770B5044602
:10083000017954F8010F0A4D61F31F606860E17996
:10084000606861F31F60FFF72AFDC5E90201E17AE4
:10085000A06861F31F60FFF722FDC5E9040170BDC8
:1008600018000020704700002DE9F04101F068F900
:10087000224B002201241E68214822494FF4FA75B8
:10088000072E36D2DFE806F035040E1920272E0099
:100890000E68AE4202DAC0F880420AE0C0F8802258
:1008A0000B2005E00E68AE42F5DBC0F880220C207C
:1008B0001860761C0E60BDE8F0810E68AE42EADB7F
:1008C000C0F880220D20F3E70E68AE42E3DBC0F8EB
:1008D00080220E20ECE70E68AE42DCDBC0F88022FE
:1008E0000F20E5E70E68AE42D5DBC0F8802210206D
:1008F000DEE7C0F880220A60DDE700001C0000206F
:10090000008040423400002030B5174887B00168AD
:1009100041F002010160016801F0020105910168E6
:1009200041F0040101600068012400F0040000941B
:1009300005900320CDE902400C4D019469462846FC
:1009400000F02AF800940A4C6946204600F024F88A
:1009500000220121284600F004F90022012120464E
:1009600000F0FFF807B030BD30380240000402400C
:100970000008024090F83510022903D0802141651B
:1009800001207047052180F835100068016821F0CA
:1009900001010160002070472DE9F84FDFF88C91CC
:1009A000002209F1040A0AF1040B4FF00F080BF1C1
:1009B000040E01260B6896403340B34271D14C6857
:1009C000022C01D0122C11D1D40800EB84073D6A0F
:1009D0005407E40E08FA04FC25EA0C05D1F810C00F
:1009E0000CFA04FC4CEA050CC7F820C00768540058
:1009F000032591F804C0A5400CF0030CAF430CFA9A
:100A000004FC4CEA070CC0F800C04F68012F05D069
:100A1000022F03D0112F01D0122F11D18768D1F8E6
:100A20000CC0AF430CFA04FC4CEA070CC0F808C039
:100A30004768B7430E79C6F3001696403E434660BA
:100A4000C668AE438D68A5403543C5604C68E40078
:100A500065D5374C256845F480452560246822F02B
:100A6000030504F480440094324C2E19D6F808781B
:100A70009407250F08FA05F4A7432F4CA04201D193
:100A8000002424E02D4CA04201D101241FE02C4C75
:100A9000A04201D102241AE02A4CA04202D1032430
:100AA00015E03CE0284CA04201D104240FE0274C83
:100AB000A04201D105240AE0254CA04201D1062420
:100AC00005E0244CA04201D1072400E00824AC40FA
:100AD0003C43C6F80848D9F800404D464E689C4350
:100AE000F60300D51C432C60DAF8004055464E68EA
:100AF0009C43B60300D51C432C60DBF800405D46E8
:100B00004E689C43F60200D51C432C60DEF8004082
:100B100075464E689C43B60200D51C432C60521C9F
:100B2000102AFFF446AFBDE8F88F0000003C0140FA
:100B300044380240003001400000024000040240FE
:100B400000080240000C0240001002400014024065
:100B500000180240001C02400069084000D001203B
:100B600070470AB1816170470904FBE701480068DA
:100B7000000C7047002004E0014800687047000046
:100B80000400002002480168491C01607047000011
:100B900004000020094810B5016841F400710160AB
:100BA000016841F480610160052000F049F80F20E0
:100BB00000F006F800F018F8002010BD003C0240DC
:100BC00010B5044607484FF47A710068B0FBF1F0A5
:100BD00000F000FB00222146501E00F011F800201A
:100BE00010BD000000000020704700F01F0201212E
:100BF00091404009800000F1E020C0F800117047EA
:100C0000F0B40E4B1B68C3F30223C3F10704042C9A
:100C100000D904241D1D072D01D2002300E0DB1E96
:100C2000012606FA04F56D1E0D409D409E40761E7D
:100C3000164045EA0601F0BC00F0AEBD0CED00E048
:100C4000064A00F0070110684FF6FF03184040EA1B
:100C50000120034908431060704700000CED00E0DC
:100C60000000FA052DE9F047DFF85C9104460E46D6
:100C7000D9F8000000F00F01F0B28046B14207D26F
:100C800089F80000D9F8000000F00F00B04271D1DF
:100C900020784E4F800705D53868A16820F0F00015
:100CA000084338602078C00756D048496068083942
:100CB00001281AD002281BD0032819D009688907F7
:100CC000002957DA396821F0030101433960FFF741
:100CD00053FF0546606841F28831012811D002288F
:100CE0001CD003288A4625D032E009688903E7E74B
:100CF00009688901E4E7FFF73FFF411B514501D92E
:100D000023E08A463868C0F381000128F3D123E04C
:100D1000FFF732FF411B514501D916E08A4638687A
:100D2000C0F381000228F3D116E0FFF725FF411B35
:100D300051450AD83868C0F381000328F5D10BE08B
:100D4000FFF71AFF411B514502D90320BDE8F08788
:100D5000386810F00C0FF3D1D9F80010484601F0B4
:100D60000F01B14208D980F80080006800F00F0040
:100D7000B04201D00120E9E72078400705D5386866
:100D8000E16820F4E050084338602078000706D579
:100D90003868216920F4604040EAC100386000F002
:100DA0004BF83968F02292FAA2F201F0F001B2FA9F
:100DB00082F2D140064A515CC840064908600F20C3
:100DC000FFF7FEFE0020C1E7003C02400838024069
:100DD000EC2E000800000020084809490068096856
:100DE0004FF4E05292FAA2F201F4E051B2FA82F228
:100DF000D140044A515CC840704700000000002008
:100E000008380240FC2E00080848094900680968B3
:100E10004FF4604292FAA2F201F46041B2FA82F217
:100E2000D140044A515CC8407047000000000020D7
:100E300008380240FC2E000830B51948006810F050
:100E40000C01184812D0441004290ED008290DD1E5
:100E5000134A121F1168136801F03F015D0247F643
:100E6000C07304D5B4FBF1F003E0204630BDB0FB05
:100E7000F1F01168194093FAA3F3B3FA83F3D94060
:100E8000484311684FF4403292FAA2F201F4403123
:100E9000B2FA82F2D140491C4900B0FBF1F030BDFA
:100EA000083802400024F4002DE9F84F0446007889
:100EB000DFF8F4A2BD4DC00748D0DAF80010504664
:100EC000C1F38101012908D00068C0F38100022824
:100ED0000AD1281D0068400206D52868800335D550
:100EE0006068002870D031E06068B0F5803F10D0B5
:100EF000B0F5A02F286810D020F480302860286832
:100F000020F4802028606068A0B1FFF735FE064617
:100F10000CE0286840F48030F4E740F4802028603A
:100F2000F7E7FFF729FE801B642873D82868800341
:100F3000F7D50BE0FFF720FE064604E0FFF71CFEA6
:100F4000801B6428F1D828688003F7D42078DFF864
:100F5000608280074FF0010B4FF0000943D5DAF8AB
:100F60000010504611F00C0F4FF0F80709D0006840
:100F7000C0F3810002280BD18B48001F006840029B
:100F800006D42868800713D5E06801281CD10FE03B
:100F9000E068D0B1C8F800B0FFF7EEFD064604E007
:100FA000FFF7EAFD801B0228BFD828688007F7D525
:100FB000286897FAA7F22169B2FA82F220F0F800C5
:100FC0009140084328600EE0EBE0C8F80090FFF77E
:100FD000D3FD064604E0FFF7CFFD801B022819D899
:100FE00028688007F7D42078000722D56E4F714813
:100FF00061696C3779B1C0F800B0FFF7BDFD0646F6
:1010000004E0FFF7B9FD801B022803D83868800789
:10101000F7D50EE079E0C0F80090FFF7ADFD064689
:1010200004E0FFF7A9FD801B02286ED8386880070E
:10103000F7D42078400750D55B483830016841F03C
:101040008051016000685C4F00F08050009038686B
:1010500040F480703860FFF78FFD064604E0FFF72C
:101060008BFD801B022850D83868C005F7D54E4F3D
:10107000A068683701280FD00528386810D020F004
:1010800001003860386820F004003860A068B0B112
:10109000FFF772FD06460EE0386840F00100F4E705
:1010A00040F004003860F7E7FFF766FD811B41F26E
:1010B000883081426DD838688007F5D50DE0FFF79C
:1010C0005BFD064606E0FFF757FD811B41F28830C5
:1010D00081425ED838688007F5D4A069F0B3DAF8A9
:1010E0000010C1F3810102295BD00228484605D0D7
:1010F000C8F86000FFF740FD04464DE04746C8F8D9
:101100006000FFF739FD064605E042E0FFF734FDD9
:10111000801B02283DD828688001F7D4D4E9070154
:10112000084347F6C07292FAA2F2616AB2FA82F2FA
:101130009140A26A4FF0FF3303EB52024FF4403369
:1011400093FAA3F3B3FA83F39A4011434FF070621A
:1011500092FAA2F20843B2FA82F200E01FE0E16ADA
:10116000914008431049091F0860C7F860B0FFF7B5
:1011700003FD044604E0FFF7FFFC001B022808D82B
:1011800028688001F7D50AE0FFF7F6FC001B02286B
:1011900002D90320BDE8F88F28688001F4D400202C
:1011A000F8E70120F6E70000083802400038024066
:1011B00000004742800E4742007000404FF0E0219F
:1011C0000428086903D020F004000861704740F04B
:1011D0000400FAE710B5401EB0F1807F01D3012072
:1011E00010BD4FF0E02460610F21601700F0D4FAC9
:1011F0000020A06107202061002010BD70477047CB
:1012000010B5040003D094F8390010B107E00120B4
:1012100010BD002084F83800204600F00DF80220B0
:1012200084F83900211D206800F066FE012084F852
:101230003900002010BD000038B50546006815498A
:10124000154C88420FD1206840F0020020602068D1
:10125000032200F00200009001211D20FFF7D0FCC6
:101260001D20FFF7C2FC0D492868884211D1206873
:1012700040F0080020602068032200F00800009081
:1012800001213220FFF7BCFCBDE838403220FFF7D7
:10129000ACBC38BD0004004040380240000C0040A7
:1012A0000168CA6842F00102CA600068016841F042
:1012B0000101016000207047704770B50446006866
:1012C00001694FF00005C943890715D4C168C943B6
:1012D000890711D4E91E0161012020762068806908
:1012E0008007204602D0FFF7E7FF04E000F098F8FF
:1012F000204600F096F8257620680169C943490721
:1013000017D4C168C943490713D46FF004010161C0
:10131000022020762068806910F4407F204602D0A9
:10132000FFF7CAFF04E000F07BF8204600F079F8F0
:10133000257620680169C943090716D4C168C943E5
:10134000090712D46FF0080101610420207620689B
:10135000C0698007204602D0FFF7AEFF04E000F02E
:101360005FF8204600F05DF8257620680169C943E2
:10137000C90617D4C168C943C90613D46FF0100158
:101380000161082020762068C06910F4407F204663
:1013900002D0FFF791FF04E000F042F8204600F091
:1013A00040F8257620680169C943C90708D1C1689A
:1013B000C943C90704D1891E0161204600F032F8F3
:1013C00020680169C943090609D4C168C9430906EF
:1013D00005D46FF0800101612046FFF70FFF206800
:1013E0000169C943490609D4C168C943490605D4FE
:1013F0006FF040010161204600F020F8206801698B
:10140000C94389060BD4C168C943890607D46FF064
:10141000200101612046BDE87040FFF7F0BE70BDBD
:10142000704770470349884203D103480168491C4B
:10143000016070475405002030000020704770475D
:1014400070B5026804461068D168536910F00F0F38
:1014500050D003F0010501F4907635435DD0C2070A
:1014600005D0CA0503D5E26B42F00102E2634207F0
:1014700005D5DA0703D0E26B42F00202E26382078D
:1014800005D5DA0703D0E26B42F00402E2630207FB
:1014900005D5DA0703D0E26B42F00802E263E26BA3
:1014A000002A33D0800604D5880602D5204600F0F5
:1014B00099FD20684069E16BC0F38010090700D4F2
:1014C00028B3204600F080FD2068416949061AD5FE
:1014D000416921F040014161606BA0B11B49016588
:1014E000606BFFF747FA002810D0606B016DBDE814
:1014F00070400847830610D58B060ED52046BDE800
:10150000704000F06FBD2046FFF799FF70BD204688
:10151000FFF795FF0020E06370BD030606D50B06BC
:1015200004D52046BDE8704000F0F8BE4006F3D573
:101530004806F1D5D168204621F04001D160202134
:1015400084F8391000F0D2F870BD0000B91F00080F
:1015500070B5040004D094F83900002510B106E0FD
:10156000012070BD84F83850204600F023F8242074
:1015700084F839002068C16821F40051C160204618
:1015800000F076FD2068016921F490410161206836
:10159000416921F02A0141612068C16841F400518C
:1015A000C160E563202084F8390084F83A00002007
:1015B00070BD000010B500681A4986B088422FD16E
:1015C0001948016841F001010160006800F0010064
:1015D000059015481430016841F010010160006861
:1015E000012100F0100005904FF4007000900220DF
:1015F000CDE90101039007200C4C04906946204678
:10160000FFF7CAF92115009169462046FFF7C4F992
:101610002520FFF7EAFA032211462520FFF7F0FA0A
:1016200006B010BD001001403038024000000240FA
:101630002DE9F843044690F83A001E4617460D4639
:10164000202850D1A5B19FB194F8380001284AD084
:10165000012084F838004FF00008C4F83C802220B4
:1016600084F83A00FFF788FAA7858146E78530E0DD
:101670000120BDE8F883E08D401EE085A0684B4660
:10168000B0F5805F4FF000024FF020012046009639
:1016900004D000F074FE98B10320EAE700F06FFE7A
:1016A0000028F9D1206900282068406803D0C1B221
:1016B00025F8011B0DE0C0F3080125F8021B08E026
:1016C000206900282068406801D000F07F0005F8FC
:1016D000010BE08D0028CED1202084F83A0084F858
:1016E00038800020C5E70220C3E770477047FEE757
:1016F00030B5144C87B00020216841F040012160D2
:101700002168012501F0400105914FF43851CDE9E0
:1017100000100320CDE9025069460B48FFF73CF961
:10172000206840F0010020602068009500F0010072
:1017300005900220029069460448FFF72DF907B092
:1017400030BD000030380240001802400000024066
:1017500070B50E4C0E484FF40071227842B100254E
:10176000012A0BD0022A02D1FFF7F6F948B970BD61
:10177000FFF7F2F90028FAD1012005E0FFF7ECF9B4
:1017800008B1257070BD0220207070BD38000020A7
:1017900000180240FEE770470907090E002806DA24
:1017A00000F00F0000F1E02080F8141D704700F1F8
:1017B000E02080F80014704710B40021084B0A465E
:1017C000002003EBC004401CC0B262548028F8D350
:1017D000491CC9B20829F3D310BC00F0EDB80000D1
:1017E0004000002010B57F2816D83F2914D80723C1
:1017F000A3EBD10301F00701C1F107040121A140CE
:10180000064CDBB204EBC000002AC25CC9B201D0B6
:101810000A4300E08A43C25410BD0000400000208B
:1018200070B55F4886B00026016841F00101016093
:10183000016801F001010591016841F002010160B8
:10184000016801F002010591016841F004010160A5
:10185000016801F004010591016841F0080101608F
:10186000016801F008010591016841F01001016073
:101870000068012400F0100005901020CDE900045C
:101880000220CDE9024069464648FFF785F84FF44B
:10189000E050009069464448FFF77EF84FF442500C
:1018A000009069464148FFF777F84148C0F8B442D4
:1018B000C0F8B0423F4DC5F8B042C5F8AC42C5F8DB
:1018C000A862642005F52A7501F0A8FA2C600021B1
:1018D000AE2000F027FA0021D52000F023FA0021E5
:1018E000502000F01FFA0021A82000F01BFA002170
:1018F0003F2000F017FA0021D32000F013FA002156
:10190000084600F00FFA0021402000F00BFA0021F9
:101910008D2000F007FA0021142000F003FA0021C6
:10192000202000F0FFF90021022000F0FBF9002147
:10193000A12000F0F7F90021C02000F0F3F9002108
:10194000DA2000F0EFF90021122000F0EBF900217D
:10195000812000F0E7F90021EF2000F0E3F90021F9
:10196000D92000F0DFF90021F12000F0DBF900219F
:10197000DB2000F0D7F90021302000F0D3F900215E
:10198000A42000F0CFF90021A62000F0CBF900211F
:10199000AF2000F0C7F9FFF70FFF06B070BD0000E1
:1019A000303802400000024000040240000C0240B7
:1019B000008041420080404270B5104E002505F184
:1019C000B000C0B2002100F0ADF90021084600F0DF
:1019D000A9F90021102000F0A5F9002406EBC400AD
:1019E0000121405D00F09EF9641CE4B2802CF5D327
:1019F0006D1CEDB2082DE2D370BD00004000002048
:101A00002DE9F84F83461E460F468A46580700D0F8
:101A1000012000EBD600710810FB01F0203AC0B2A3
:101A200002F0FF090025009039E00C2E0FD0102E97
:101A300011D0182E36D11C4909EBC90001EB8000EA
:101A40004FF00008445D200609D50A9A0AE009EB28
:101A500049001649F2E7164901EB0910F0E70A9828
:101A600090B1002239465846FFF7BCFE60067F1C45
:101A7000040EFFB2A7EB0A00B04207D10BF1010040
:101A8000574600F0FF0B08E00122EBE708F10100E8
:101A900000F0FF08B8F1080FD5D36D1CEDB2009827
:101AA0008542C2D3BDE8F88F283B0008042F000808
:101AB000783300082DE9F84704461F468020164673
:101AC0000D46A0EB5709C3F140084FF0010A16E09C
:101AD000A14502D20024E819C5B2A84503DA0024C2
:101AE0002546FFF769FECDF800A032783B4629462F
:101AF0002046FFF785FF04EB5700C4B2761C307810
:101B00002028E5D2BDE8F887FEB5064614460D4606
:101B100010EE100AFEF7D4FB41EC100B06A153ECBB
:101B2000102B684600F0EEFC23466A4629463046F4
:101B3000FFF7C0FFFEBD0000252D352E31660000E9
:101B400070B556482DED028B00689FED558B564CB5
:101B5000564D112879D2DFE800F09D096F79828B0C
:101B6000949D9D9D9D096F79828B940000210C238B
:101B70004FA20846FFF79EFF0C234FA2002123200F
:101B8000FFF798FF0C234EA219460020FFF792FFA3
:101B90000C234EA219466420FFF78CFF94ED000B36
:101BA00053EC182B51EC100BFEF70AFBFEF79BFBD6
:101BB0000C2200EE100A11463C201EE000212320DA
:101BC000FFF778FF0C2342A219460020FFF772FFAF
:101BD0000C233EA219466E20FFF76CFF94ED000B1C
:101BE00053EC182B51EC100BFEF7EAFAFEF77BFBD7
:101BF00000EE100A0C2211464B20FFF785FF0C2344
:101C000037A218210020FFF755FF95ED000B51EC8E
:101C1000100BFEF768FB00EE100A0C22182137208B
:101C2000FFF772FFBDEC028B0C23BDE8704018215A
:101C300026A26E20FFF73EBF00210C231CA20846FF
:101C4000FFF738FF0C2329A2B8E723E000210C237B
:101C500017A20846FFF72EFF0C2327A2AEE70021AC
:101C60000C2313A20846FFF725FF0C2324A2A5E7A7
:101C700000210C230EA20846FFF71CFF0C2323A211
:101C80009CE700210C230AA20846FFF713FF0C2350
:101C900021A293E7BDEC028B70BD00001C00002068
:101CA0000000000000005940200000202800002013
:101CB00053686170653A0000526F756E64000000F1
:101CC0004469616D657465723A000000636D0000DF
:101CD00053696465206C656E6774683A00000000A3
:101CE00044697374616E63653A00000054726961FF
:101CF0006E676C65000000005371756172650000CD
:101D0000466F6F7462616C6C000000004261736B1F
:101D1000657462616C6C0000566F6C6C6579626111
:101D20006C6C000070B50F4DC5F8AC120023C5F8FF
:101D3000B0320D4A19460124C2F8B032060602D567
:101D4000C2F8B44201E0C2F8B432C2F8B042400670
:101D5000491C000EC9B20829EED3C5F8B042C5F837
:101D6000AC4270BD0080404200804142704700009C
:101D7000124A30B45178002321B1012908D0022938
:101D80000ED007E0AA2805D10120507030BC704762
:101D9000AE2801D05370F9E7022050701370F5E7B8
:101DA0001178074C491CC9B2117060540C29EDD34D
:101DB0005370204630BCFEF739BD000018000020EB
:101DC000480500207047000070B5214C92B00025F6
:101DD000266846F080562660246804F080541194EA
:101DE0001C4C266846F48046266024680DF1240CBD
:101DF00004F48044119401240094240401940224E6
:101E000006948CE80D006605CDE907616846FFF78A
:101E10004BF800B1FEE70CA90F2081E831004FF428
:101E2000A0500F904FF48050109005210CA8FEF7A1
:101E300019FF00B1FEE7FEF799FE41F20101884269
:101E400004D10548016841F48071016012B070BD91
:101E50004038024000700040003C0240FEF792BE55
:101E60001048016841F4700101600F48016841F0B9
:101E7000010101600C4A00210832116002680B4B1D
:101E80001A400260031D0A4A1A60026822F4802286
:101E9000026005480C30016002495806803908602C
:101EA0007047000088ED00E000380240FFFFF6FEBA
:101EB000103000240148FFF700BA0000540500204C
:101EC000094A10B5074BC2E900310021C2E90210EE
:101ED00010461161FFF794F9BDE810400248FFF782
:101EE000DFB9000000040040540500200148FFF75E
:101EF000E4B9000090050020F0B50268234D244E9F
:101F0000244FDFF894C0254B4FF0804EA84209D0F3
:101F1000704507D0B04205D0B84203D0604501D02B
:101F2000984203D122F070044A682243A8421BD091
:101F3000704519D0B04217D0B84215D0604513D0C3
:101F4000984211D0164CA0420ED0164CA0420BD095
:101F5000154CA04208D0154CA04205D0144CA0420C
:101F600002D0144CA04203D122F44074CA68224328
:101F700002608A68C2620A688262A84201D09842FE
:101F800001D10969016301214161F0BD00000140F7
:101F90000004004000080040000C00400004014024
:101FA000004001400044014000480140001800404A
:101FB000001C00400020004010B5806B0021C1854E
:101FC000C184FFF73CFA10BD0168CA6822F4907220
:101FD000CA6001684A6922F001024A61202180F842
:101FE0003A10704710B590F83A10222901D002201B
:101FF00010BD8168B1F5805F11D0016900290168C9
:102000001FD0496801F07F03816A4A1C82620B700D
:10201000C18D491E0904090CC18518D026E002694A
:10202000816A002A0268526805D0D2B20A80816AA9
:10203000491C8162ECE7C2F308020A80816A891CAC
:10204000F7E74A68816A4B1C83620A70E0E701681F
:10205000CA6822F49072CA6001684A6922F00102DB
:102060004A61202180F83A10FFF73FFB002010BDA5
:102070002DE9F04104460068016921F44052E1680D
:10208000114301612068C16849F20C6291432369E0
:10209000A268E5691A4363692B431A430A43C26085
:1020A00020684169A26921F440710A434261E069F4
:1020B0006425B0F5004F974A974920684FF03208E1
:1020C0003FD0884201D090427CD1FEF79DFE00EBCC
:1020D000C00101EB001061688900B0FBF1F6FEF76A
:1020E00093FE00EBC00101EB001061688900B0FBBA
:1020F000F1F0B0FBF5F06FF01801484306EB8001FA
:1021000008EB0110B0FBF5F000F0F006FEF77CFEE6
:1021100000EBC00101EB001061688900B0FBF1F039
:10212000B0FBF5F006EB0016FEF76EFE00EBC0010B
:1021300001EB001061688900B0FBF1F7FEF764FE67
:10214000D2E0884201D090423DD1FEF75DFE00EB27
:10215000C00101EB001061684900B0FBF1F0B0FB79
:10216000F5F00601FEF750FE00EBC00101EB001098
:1021700061684900B0FBF1F7FEF746FE00EBC001D5
:1021800001EB001061684900B0FBF1F0B0FBF5F025
:102190006FF01801484307EB800108EBC100B0FB6A
:1021A000F5F000F0F80006EB4006FEF72DFE00EB20
:1021B000C00101EB001061684900B0FBF1F7FEF7C8
:1021C00023FE3CE055E0FEF707FE00EBC00101EB0B
:1021D000001061684900B0FBF1F0B0FBF5F00601BA
:1021E000FEF7FAFD00EBC00101EB00106168490049
:1021F000B0FBF1F7FEF7F0FD00EBC00101EB0010C2
:1022000061684900B0FBF1F0B0FBF5F06FF0180128
:10221000484307EB800108EBC100B0FBF5F000F08C
:10222000F80006EB4006FEF7D7FD00EBC00101EB1E
:10223000001061684900B0FBF1F7FEF7CDFD00EB3F
:10224000C00101EB001061684900B0FBF1F0B0FB88
:10225000F5F06FF01801484307EB800108EBC1006F
:10226000B0FBF5F000F00700216830448860BDE85D
:10227000F081FEF7B1FD00EBC00101EB00106168D9
:102280008900B0FBF1F6FEF7A7FD00EBC00101EB02
:10229000001061688900B0FBF1F0B0FBF5F06FF061
:1022A0001801484306EB800108EB0110B0FBF5F084
:1022B00000F0F006FEF790FD00EBC00101EB00100E
:1022C00061688900B0FBF1F0B0FBF5F006EB001699
:1022D000FEF782FD00EBC00101EB00106168890090
:1022E000B0FBF1F7FEF778FD00EBC00101EB001049
:1022F00061688900B0FBF1F0B0FBF5F06FF01801F8
:10230000484307EB800108EB0110B0FBF5F000F04B
:102310000F00A9E7001401400010014090F83910A7
:10232000212901D0022070478168B1F5805F016AE0
:102330000BD04A1C0262026809785160C18C491EA8
:102340000904090CC1840ED017E009880268C1F3A2
:102350000801516001690029016A02D0491C01622B
:10236000ECE7891CFBE70168CA6822F08002CA60BA
:102370000068C16841F04001C160002070472DE94C
:10238000F0411E46174688460446069D1CE0681C20
:102390001AD025B1FEF7F0FB801BA84214D92068A3
:1023A000C16821F4D071C1602068416921F0010148
:1023B0004161202084F8390084F83A00002084F834
:1023C00038000320BDE8F0812068016838EA010088
:1023D00004D00020B842DAD00020F3E70120F9E76A
:1023E000F8B5304800680068C043800658D44FF400
:1023F0007A73012269462B48FFF71AF92A4C294EB5
:102400004FF00005608806F14006010416D441042F
:102410009DF8001004D50A290CD140F4004014E0C6
:102420000D2910D0C0F30D02401C80B2B154608061
:10243000C72800D96580608800042ED5A078207058
:10244000A5801A4F0CE040F480406080F3E7305CD8
:10245000FFF78EFC38684006FCD5A088401CA080A1
:10246000A08821788842F2D311486580016811A0C4
:1024700000F038F8124890ED000B12A053EC102B2E
:1024800000F030F8124890ED000B12A053EC102B26
:1024900000F028F80DA000F025F80248FEF7D0FF64
:1024A000F8BD0000400400200C0000200010014096
:1024B0001C000020B1EAD6BECEBB3A25640D0A004E
:1024C00020000020D6B1BEB6A3BA25660D0A0000D2
:1024D00028000020BEE0C0EBA3BA25660D0A00006C
:1024E000FEE700000FB4054B10B503A9044A02989B
:1024F00000F0EEF810BC5DF814FB00006D2E000833
:102500003C0000200FB4084B10B504A902AA0398A0
:1025100000F0DEF8044602A9002000F070FC20461E
:1025200010BC5DF814FB0000FF2D000802E008C895
:10253000121F08C1002AFAD170477047002001E03D
:1025400001C1121F002AFBD1704700002DE9FF5F77
:1025500082B00021DDE90430020DDDF840B0034314
:1025600018D044F61050A2F2FF32424315141198CD
:1025700001281FD0A5EB0B00401C5FEA000A4FF0BA
:1025800000064E4FDFF83891B046504615D5CAF1D7
:10259000000413E0119801244AA3012801D16FEA35
:1025A0000B010298119AC0E90031C0E9024206B05D
:1025B000BDE8F09FCBF10000DFE704460021404A70
:1025C000491842EB0450CDE9001012E0E00707D0B3
:1025D00032463B4640464946FEF733F88046894638
:1025E00032463B4610461946FEF72BF806460F4684
:1025F0006410002CEAD1DDE90401DDE90023BAF121
:10260000000F06DAFEF71DF842464B46FEF719F8B2
:1026100005E0FDF7D5FD42464B46FDF7D1FD0446EA
:102620000E460022284BFEF797F803D84FF0FF30F4
:10263000014607E00022254B20463146FDF75AFFB0
:10264000FEF771F8102409E0002C0ADB0A220023AF
:10265000FDF77BFE039B30321A55641E50EA0102DF
:10266000F2D1641C039AC4F111031444119A012A93
:1026700003D0012208430DD10AE0084304D0002012
:102680004FF0110B119072E7A3EB0B056D1E0DE0DF
:102690005B4504DD4FF0000205F1010504E003DABB
:1026A0004FF00002A5F10105002AECD00298119923
:1026B000C0E90231C0E9004579E70000000014409C
:1026C0000000F03F300000000000F0430000E03F59
:1026D0002DE9FF4F95B09B468946064600250FE23F
:1026E000252877D100242746F84A0121059400E0E7
:1026F000044316F8013F203B01FA03F01042F7D1E2
:1027000030782A2811D06FF02F033078A0F13002F2
:10271000092A16D8059A44F0020402EB820203EB60
:1027200042021044761C0590EFE759F8042B0592FD
:10273000002A03DA504244F40054059044F00204A5
:10274000761C30782E2816D116F8010F44F00404B8
:102750002A280DD06FF02F023078A0F13003092B1A
:1027600009D807EB870302EB4303C718761CF3E78E
:1027700059F8047B761C30786C280FD006DC4C2886
:1027800017D068280DD06A2814D104E0742810D01E
:102790007A280FD10DE044F400140AE044F48014C8
:1027A00001E044F440147278824202D104F58014AE
:1027B000761C761C307866280BD013DC582877D02E
:1027C00009DC002875D04528F6D04628F4D04728E3
:1027D0001AD19DE118E0632835D0642879D06528A6
:1027E00012D195E1702873D008DC6728F1D06928F0
:1027F0006FD06E280DD06F2806D1B5E073282CD08D
:10280000752875D0782874D05A46179990476D1C52
:1028100075E1C4F30250022809D003280DD0D9F87D
:10282000001004280DD00D6009F1040967E1D9F802
:102830000010EA17C1E90052F6E7D9F800100D8040
:10284000F2E70D70F0E719F8041B8DF80010002076
:102850008DF80100EA46012003E059F804AB4FF07F
:10286000FF3061074FF0000102D40DE008F10101D3
:102870008846B9420FDA8045F8DB1AF808100029BB
:10288000F4D108E008F1010188468142FADB1AF828
:1028900008100029F6D105985B46A0EB08072146F1
:1028A0003846179A00F094FA284400EB080507E030
:1028B0004DE029E10DE01AF8010B5A4617999047AF
:1028C000B8F10108F7D25B4621463846179A13E162
:1028D00042E00A220092C4F302524FF0000A022A98
:1028E00008D059F804CB032A4FEAEC710AD00DE066
:1028F00029E02AE009F1070121F00702F2E802C10C
:10290000914609E00FFA8CFC4FEAEC71042A03D1DE
:102910004FFA8CFC4FEAEC71002907DA0A460021D5
:10292000DCF1000C61EB02012D2202E0220504D54E
:102930002B228DF80420012203E0E20701D020229F
:10294000F7E7904659E00A2102E010220DE010213D
:102950004FF0000A00910BE010224FF0000A44F003
:1029600004040827009203E008224FF0000A0092B6
:10297000C4F30252022A05D059F804CB0021032ADD
:1029800008D009E009F1070121F00702F2E802C1CD
:10299000914605E01FFA8CFC042A01D10CF0FF0CD3
:1029A0004FF00008220728D5702806D0009B83F03E
:1029B000100353EA0A0305D00EE040228DF80420EC
:1029C000012208E05CEA010206D030228DF80420E2
:1029D0008DF8050002229046009B83F0080353EA1D
:1029E0000A030AD15CEA010201D1620705D530224F
:1029F0008DF804204FF001087F1E582804D034A021
:102A000003900EA802900DE036A0F9E75346604609
:102A1000009AFDF79AFC84460398825C0298401E57
:102A2000029002705CEA0100F0D1029806A9081A2F
:102A300000F1200A600702D524F4803400E0012769
:102A4000574502DDA7EB0A0000E0002000EB0A0179
:102A5000009005984144401A0590E00306D45B4677
:102A60002146179A059800F0B3F90544002706E0BF
:102A700001A85A46C05D179990476D1C7F1C4745B9
:102A8000F6DBE0030CD55B462146179A059800F06B
:102A90009FF9054404E030205A46179990476D1C71
:102AA0000099481E00900029F5DC08E00298029980
:102AB0005A460078491C0291179990476D1CBAF14B
:102AC0000001AAF1010AF1DC65E10000092801001A
:102AD0003031323334353637383961626364656694
:102AE0000000000030313233343536373839414256
:102AF000434445460000000000F058F90544761CA8
:102B0000307800287FF4ECAD19B02846BDE8F08F8E
:102B1000620700D4062709F1070222F0070CFCE83F
:102B20000223E14603F000485FEA080C02D00FF2EE
:102B3000702C0DE05FEA045C02D50FF2682C07E010
:102B40005FEAC47C02D00FF2602C01E0AFF2700C9F
:102B50004FF0FF3823F00043CDF850C065280CD06B
:102B600006DC452809D046281DD047283DD13DE048
:102B7000662818D067287ED138E00021112F01DBAC
:102B8000112000E0781CCDE9000106A90EA8FFF78E
:102B9000DDFCDDE90F010E9A03910021009207F19F
:102BA000010A04914DE04FF000400097CDE901107B
:102BB00006A90EA8FFF7CAFCDDE90F0203920E9BDF
:102BC00011990022DDF80CA00093049211B9791C30
:102BD00000EB010AB7EB0A0004D4C0F1FF3007F1A3
:102BE000010A0490AAEB0700019044E0012F00DAEB
:102BF00001270021112F01DD112000E03846CDE929
:102C0000000106A90EA8FFF7A1FCDDE90F010E9A4D
:102C10000391002104910092BA4621070CD4039934
:102C2000514500DA8A46BAF1010F05DD009AAAF192
:102C30000101515C302908D0B84202DA10F1040FCA
:102C400006DA0121CDE9011015E0AAF10101E9E759
:102C5000002805DC049901440491AAEB000102E07C
:102C6000411C514500DD8A460499401A401C0190E0
:102C70004FF000400290200704D40198504501DB3A
:102C8000CDF8048000208DF84F0002980DF14F0719
:102C9000B0F1004F25D02B200E9002984FF0020883
:102CA00000280CDA404202902D200E9007E00A2105
:102CB0000298FDF734FB3031029007F8011DB8F19E
:102CC0000001A8F10108F2DC02980028EFD1791E7A
:102CD0000E980870307800F0200040F0450007F8AA
:102CE000020D12A8C01B00F107081498007800B16B
:102CF000012000EB0A01019801EBE07105984144C5
:102D0000401A401E0590E00306D45B462146179A00
:102D1000059800F05DF805441498007818B15A46FB
:102D2000179990476D1CE00324D55B462146179AFE
:102D3000059800F04DF805441CE00498002807DBD6
:102D4000DDE90301884203DD0098405C179901E04A
:102D5000179930205A469047049805F10105401C08
:102D600004900198401E019004D12E205A461799D4
:102D700090476D1CBAF10001AAF1010ADDDC05E003
:102D800017F8010B5A46179990476D1CB8F10001CE
:102D9000A8F10108F4DC5B462146179A0598ABE6DA
:102DA0002D0000002B000000200000002DE9F04164
:102DB000044600251E461746880404D405E039461B
:102DC0002020B0476D1C641EF9D52846BDE8F0816F
:102DD0002DE9F041044600251E469046C80301D562
:102DE000302700E02027880404D505E04146384616
:102DF000B0476D1C641EF9D52846BDE8F0810A680D
:102E0000531C0B601070704710B504460420FEF789
:102E1000D5F90148046010BD0800002070B50546D2
:102E200000244FF47A7603E0304600F005F8641C85
:102E3000AC42F9D370BD000070B54FF0E025002121
:102E40006C69094AAB6912685043AA699A42FCD07E
:102E500002D2A3EB020302E0A4EB020633441944BE
:102E600013468142F1D370BD0800002003490A686F
:102E70005206FCD5C2B24A60704700000010014003
:102E8000FDF7B5FC03240B4E0525FEF761FC306809
:102E900090FBF4F104FB110008B9FDF7E5FC306884
:102EA00090FBF5F105FB11000028EED1FEF784FD43
:102EB000EBE700003000002010B50B4C0949C4E9D5
:102EC00000100020A060E0602061A0610C20606123
:102ED0002046FEF73DFB2068C16841F02001C1603B
:102EE00010BD000000100140400400200000000060
:102EF00000000000010203040607080900000000AA
:102F000001020304000000000000000000000000B7
:102F1000000000003F400000000000000000300002
:102F2000400030004000000009000BC03D000BC015
:102F30003D00090018C024407FE02240318000009D
:102F4000180024C01B000D803240018003801C400B
:102F500027401C8007400040100060000000000077
:102F6000000000000000000000001F802040402002
:102F70000000402020401F800000000009000600E3
:102F80001F80060009000000040004003F800400C8
:102F900004000000001000600000000000000000BD
:102FA00004000400040004000400000000000040CD
:102FB0000000000000000000002001C006003800F2
:102FC000400000001F802040204020401F80000063
:102FD000000010403FC000400000000018C0214029
:102FE000224024401840000010802040244024400B
:102FF0001B80000002000D0011003FC001400000D6
:103000003C80244024402440238000001F80244032
:1030100024403440038000003000200027C03800E6
:10302000200000001B802440244024401B8000001E
:103030001C0022C0224022401F800000000000002F
:1030400008400000000000000000000004600000D4
:1030500000000000000004000A0011002080404031
:1030600009000900090009000900000000004040B3
:10307000208011000A0004001800200023402400D2
:10308000180000001F802040274029401F400000FA
:10309000004007C039000F0001C0004020403FC081
:1030A000244024401B8000001F80204020402040FE
:1030B0003080000020403FC0204020401F800000A2
:1030C00020403FC024402E4030C0000020403FC080
:1030D00024402E00300000000F00108020402240CD
:1030E0003380020020403FC0040004003FC0204065
:1030F000204020403FC020402040000000602020B1
:1031000020203FC02000200020403FC024400B0072
:1031100030C0204020403FC020400040004000C060
:103120003FC03C0003C03C003FC0000020403FC007
:103130000C4023003FC020001F8020402040204042
:103140001F80000020403FC02440240018000000E1
:103150001F802140214020E01FA0000020403FC0F0
:103160002440260019C0004018C0244024402240BA
:1031700031800000300020403FC02040300000007F
:1031800020003F80004000403F80200020003E00A3
:1031900001C0070038002000380007C03C0007C00D
:1031A00038000000204039C0060039C0204000002F
:1031B0002000384007C0384020000000304021C0C7
:1031C0002640384020C00000000000007FE0402082
:1031D00040200000000070000C0003800040000050
:1031E0000000402040207FE00000000000002000A0
:1031F000400020000000000000100010001000102F
:10320000001000100000000040000000000000005E
:10321000000002800540054003C0004020003FC080
:103220000440044003800000000003800440044088
:103230000640000000000380044024403FC00040DE
:1032400000000380054005400340000000000440EA
:103250001FC0244024402000000002E0055005501B
:103260000650042020403FC00440040003C000403A
:103270000000044027C000400000000000100010C3
:10328000041027E00000000020403FC0014007007C
:1032900004C00440204020403FC0004000400000E7
:1032A00007C0040007C0040003C00000044007C0BA
:1032B0000440040003C000400000038004400440B8
:1032C00003800000041007F0045004400380000055
:1032D000000003800440045007F00010044007C0C1
:1032E00002400400040000000000064005400540C4
:1032F00004C00000000004001F80044000400000E3
:10330000040007800040044007C00040040007009C
:1033100004C0018006000400060001C0070001C0CF
:1033200006000000044006C0010006C00440000082
:103330000410071004E001800600040000000440AF
:1033400005C00640044000000000000004007BE0CF
:1033500040200000000000000000FFF0000000001E
:10336000000040207BE004000000000040008000DE
:10337000400020002000400000000000000000008D
:1033800000000000000000000000000000001FCC52
:10339000000C000000000000000008003000600089
:1033A0000800300060000000022003FC1E20022004
:1033B00003FC1E200220000000000E1811043FFF35
:1033C00010840C78000000000F0010840F3800C03B
:1033D000077818840078000000780F8410C4112446
:1033E0000E9800E4008400080800680070000000E7
:1033F000000000000000000000000000000007E0E6
:103400001818200440020000000040022004181890
:1034100007E00000000000000240024001800FF0C1
:1034200001800240024000000080008000800FF810
:1034300000800080008000000001000D000E0000F0
:1034400000000000000000000000008000800080FC
:1034500000800080008000800000000C000C000054
:1034600000000000000000000000000600180060DE
:103470000180060018002000000007F00808100472
:103480001004080807F000000000080408041FFCEE
:10349000000400040000000000000E0C10141024B2
:1034A000104411840E0C000000000C1810041104CC
:1034B000110412880C700000000000E003200424B6
:1034C00008241FFC0024000000001F981084110431
:1034D0001104108810700000000007F00888110423
:1034E000110418880070000000001C00100010FC7F
:1034F00013001C001000000000000E38114410845E
:10350000108411440E38000000000700088C10449D
:103510001044088807F00000000000000000030CC1
:10352000030C000000000000000000000001010684
:1035300000000000000000000000008001400220A8
:1035400004100808100400000220022002200220BB
:1035500002200220022000000000100408080410CD
:10356000022001400080000000000E001200100C3C
:10357000106C10800F00000003E00C1813E41424FA
:1035800017C4082807D000000004003C03C41C40F6
:10359000074000E4001C000410041FFC1104110487
:1035A00011040E880070000003E00C1810041004D1
:1035B000100410081C10000010041FFC100410045C
:1035C0001004080807F0000010041FFC1104110487
:1035D00017C410040818000010041FFC1104110087
:1035E00017C010000800000003E00C1810041004BD
:1035F00010441C780040000010041FFC1084008060
:10360000008010841FFC10040000100410041FFC34
:10361000100410040000000000030001100110015C
:103620001FFE10001000000010041FFC1104038096
:103630001464181C1004000010041FFC1004000483
:1036400000040004000C000010041FFC1F0000FC1C
:103650001F001FFC1004000010041FFC0C040300DA
:1036600000E010181FFC100007F0080810041004F8
:103670001004080807F0000010041FFC10841080DC
:10368000108010800F00000007F00818102410248C
:10369000101C080A07F2000010041FFC110411009E
:1036A00011C011300E0C000400000E1C1104108417
:1036B000108410441C3800001800100010041FFC77
:1036C000100410001800000010001FF8100400047F
:1036D000000410041FF8100010001E0011E0001C70
:1036E000007013801C0010001FC0103C00E01F0081
:1036F00000E0103C1FC000001004180C163401C07C
:1037000001C01634180C100410001C00130400FC37
:1037100013041C00100000000804101C1064108426
:1037200013041C04101800000000000000007FFEBD
:103730004002400240020000000030000C00038004
:103740000060001C00030000000040024002400234
:103750007FFE00000000000000000000200040008C
:1037600040004000200000000001000100010001B5
:1037700000010001000100010000400040002000A5
:103780000000000000000000000000980124014437
:103790000144014400FC000410001FFC00880104E7
:1037A000010400880070000000000070008801041F
:1037B000010401040088000000000070008801047A
:1037C000010411081FFC0004000000F8014401443A
:1037D0000144014400C800000000010401040FFC82
:1037E0001104110411001800000000D6012901295C
:1037F000012901C90106000010041FFC008401001A
:103800000100010400FC000400000104190419FC7B
:10381000000400040000000000000003000101019A
:10382000190119FE0000000010041FFC00240040D4
:1038300001B4010C010400000000100410041FFC7E
:103840000004000400000000010401FC0104010068
:1038500001FC0104010000FC010401FC00840100E2
:103860000100010400FC0004000000F80104010450
:103870000104010400F80000010101FF00850104BA
:10388000010400880070000000000070008801043E
:103890000104010501FF00010104010401FC008491
:1038A0000104010001800000000000CC012401247B
:1038B000012401240198000000000100010007F824
:1038C0000104010400000000010001F800040004EC
:1038D0000004010801FC0004010001800170000CDB
:1038E000001001600180010001F0010C003001C0F6
:1038F0000030010C01F0010000000104018C007493
:103900000170018C01040000010101810171000EB0
:10391000001801600180010000000184010C0134E5
:1039200001440184010C00000000000000000000C0
:1039300001003EFC400240020000000000000000C8
:10394000FFFF0000000000000000400240023EFCBB
:103950000100000000000000000060008000800006
:103960004000400020002000000000000000000097
:103970000000000000000000000000000000000047
:103980000000000000000000000000000000000037
:103990000000000000000000000000000000000027
:1039A0000000000000000000000000000000000017
:1039B0000000000000000000000000000000000007
:1039C00000000000000000000000000000000000F7
:1039D00000000000000000000000000000000000E7
:1039E00000000000000000000000000000000000D7
:1039F00000000000000000000000000000000000C7
:103A000000000000000000000000000000000000B6
:103A100000000000000000000000000000000000A6
:103A20000000000000000000000000000000000096
:103A30000000000000000000000000000000000086
:103A40000000000000000000000000000000000076
:103A50000000000000000000000000000000000066
:103A60000000000000000000000000000000000056
:103A70000000000000000000000000000000000046
:103A80000000000000000000000000000000000036
:103A90000000000000000000000000000000000026
:103AA0000000000000000000000000000000000016
:103AB0000000000000000000000000000000000006
:103AC00000000000000000000000000000000000F6
:103AD00000000000000000000000000000000000E6
:103AE00000000000000000000000000000000000D6
:103AF00000000000000000000000000000000000C6
:103B000000000000000000000000000000000000B5
:103B100000000000000000000000000000000000A5
:103B20000000000000000000000000000000000095
:103B30000000000000000000000000000000000085
:103B40000000000000000000000000000000000075
:103B500000000000000000000000000F80380FFE91
:103B6000380F803800000000000000000000000056
:103B70000000000000000100000600000C000038FA
:103B800000003100000600000C000038000030008A
:103B9000000000000000000061800067F807F98065
:103BA0000061800061800061800061800067F8072B
:103BB000F98000618000000000000000000001C0EA
:103BC000E003E0F00630080418081FFFFE040E08AA
:103BD0000787F00381E000000000000001F000060C
:103BE0000C00040408060C7001F9C0000E00003B34
:103BF000E000EC18070808040C180003E0000000BF
:103C00000001E00007F003F818041C080417080777
:103C1000E1D003C0E00023B0003C08002008000011
:103C20001000000000000001000031000032000020
:103C30001C00000000000000000000000000000068
:103C40000000000000000000000000000000000074
:103C500000000000000000007F0001FFC00780F0AE
:103C60000C001810000420000200000000000020DA
:103C700000021000040C00180780F001FFC0007F54
:103C80000000000000000000000000000000000034
:103C9000000000004200006600006600003C0000DA
:103CA000180003FFC0001800003C0000660000661A
:103CB00000004200000000000800000800000800AA
:103CC00000080000080001FFC00008000008000014
:103CD00008000008000008000000000000010000CB
:103CE0003100003200001C00000000000000000055
:103CF00000000000000000000000000000000000C4
:103D00000800000800000800000800000800000883
:103D10000000080000080000080000080000000083
:103D200000000000000000003800003800003800EB
:103D30000000000000000000000000000000000083
:103D40000000000000000000000600001C000070E1
:103D5000000180000E0000380000C0000700001CB9
:103D60000000300000000000000000007F8001FF24
:103D7000E00380700600180400080400080600181C
:103D800003807001FFE0007F800000000000000061
:103D9000000001000801000801000803FFF807FF08
:103DA000F800000800000800000800000000000003
:103DB00000000001C03802C0580400980401180433
:103DC0000218040418061C1803F81801E0F8000093
:103DD0000000000000000001C0E003C0F004000883
:103DE00004080804080806180803F41801E7F0009E
:103DF00001E0000000000000000000000300000DD2
:103E00000000110000610000810803010807FFF8AD
:103E10000FFFF8000108000108000000000000008A
:103E200000E007FCD0060808061008061008061077
:103E300008061838060FF00607C000000000000052
:103E4000000000003F8001FFE003843002081804F6
:103E50001008041008041008071810030FF00007DA
:103E6000C000000000000000000003C000070000C8
:103E70000600000600F80607F806180006E000072E
:103E8000000006000000000000000001E1E003F770
:103E9000F0063410041808041808040C08040C0870
:103EA00006161803F3F001C1E00000000000000056
:103EB000F80003FC30030638040208040208040278
:103EC000080404100308F001FFC0007F0000000098
:103ED00000000000000000000000000000000000E2
:103EE00070380070380070380000000000000000DA
:103EF00000000000000000000000000000000000C2
:103F000000000000301A00301C000000000000001B
:103F10000000000000000000000000000000000899
:103F200000001400002200004100008080010040D9
:103F3000020020040010080008000000000000003B
:103F400021000021000021000021000021000021AB
:103F500000002100002100002100002100000000DD
:103F6000000000000000080008040010020020010A
:103F70000040008080004100002200001400000882
:103F80000000000000000003C00004C000040000A6
:103F9000080038080F380808380810000C300007EF
:103FA000E00003C000000000000000003F8000FFB0
:103FB000E0038070020F1006708804C08804830834
:103FC000047F8802C09003012000FE40000008002A
:103FD00000180001F8003E0801C20007020007E2D5
:103FE0000000FE00001FC80001F8000038000008B3
:103FF00004000807FFF807FFF8040808040808048D
:10400000080804080806180803F41801E7F000017E
:10401000E0000000000000003F8001FFE00380702E
:104020000200180400080400080400080400100638
:1040300000200780C000000004000807FFF807FF09
:10404000F804000804000804000804001802001026
:1040500003807001FFE0007F80000000040008077B
:10406000FFF807FFF8040808040808040808040813
:1040700008043E0804000806001801006000000063
:1040800004000807FFF807FFF80408080408000404
:104090000800040800043E0006000006000001803D
:1040A00000000000000000003F8001FFE00380707E
:1040B0000600180400080402080402080203F007BE
:1040C00083F000020000020004000807FFF807FF69
:1040D000F8040808000800000800000800000800B4
:1040E00004080807FFF807FFF804000800000000B4
:1040F000000004000804000804000807FFF807FF98
:10410000F804000804000804000800000000000093
:104110000000000000060000070000010400010488
:10412000000104000307FFFE07FFFC040000040079
:104130000004000004000807FFF807FFF8040C085B
:10414000001800003E0004C7800503C80600F804FC
:10415000003804001800000804000807FFF807FFF3
:10416000F80400080000080000080000080000082B
:1041700000000800001800006000000004000807AC
:10418000FFF807800807FC00007FC00003F8000765
:10419000C000780007800807FFF807FFF804000850
:1041A00004000807FFF807000803C00000E0000053
:1041B0003800001E000007000001C00400F007FFE7
:1041C000F8040000000000007F8001FFE003807021
:1041D0000600180400080400080600180300300157
:1041E000FFE0007F8000000004000807FFF807FFE1
:1041F000F804040804040004040004040004040097
:10420000060C0003F80001F00000000000000000B0
:104210007F8001FFE00380700600880400880400AE
:10422000C806003C03003E01FFE6007F840000005A
:1042300004000807FFF807FFF80408080408000452
:104240000C00040F00040BC00610F003F03801E06E
:104250000800000800000001E0F803F0300630100C
:10426000041808041808040C08040C0802061802B4
:1042700007F00781E0000000018000060000040054
:104280000004000004000807FFF807FFF804000816
:104290000400000400000600000180000400000784
:1042A000FFE007FFF004001800000800000800000D
:1042B0000800000800000804001007FFE0040000E8
:1042C00004000006000007E00007FE00041FE000F5
:1042D00001F80000380001E0043E0007C0000600BD
:1042E0000004000004000007E00007FFC0041FF8FE
:1042F0000007C007F80007FF80043FF80007C0046C
:10430000F800070000040000000000040008060098
:104310001807C07805F1C8003E00001F800463E85C
:104320000780F806001804000800000004000006DA
:10433000000007800007E008047C08001FF8000761
:10434000F800180804E00807000006000004000058
:104350000000000100080600380400F80403E80427
:104360000F08047C0805F00807C0080700180400BF
:1043700060000000000000000000000000000000DD
:104380000000003FFFFE200002200002200002206B
:1043900000022000020000000000000000000800F1
:1043A0000007000000C0000038000006000001C047
:1043B00000003000000E00000100000000000000BE
:1043C0000000200002200002200002200002200045
:1043D000023FFFFE0000000000000000000000009F
:1043E0000000000000000000000800001000003085
:1043F0000000200000300000100000080000000055
:1044000000000000000001000001000001000001A8
:104410000000010000010000010000010000010097
:104420000001000001000001000000000000000089
:10443000002000002000001000001000000000001C
:10444000000000000000000000000000000000006C
:1044500000F00019F8001B180022080026080024AC
:1044600008002410003FF8001FF8000008000018A2
:1044700000000004000007FFF80FFFF0001818000C
:104480001008002008002008003018001FF0000F5E
:10449000C00000000000000007C0001FF00018303E
:1044A000002008002008002008003C08001C100024
:1044B00000600000000000000000000007C0001FB6
:1044C000F000381800200800200800200804101010
:1044D00007FFF80FFFF000001000000000000000D0
:1044E00000000007C0001FF0001230002218002258
:1044F00008002208003208001E10000E20000000F4
:1045000000000000200000200800200801FFF80340
:10451000FFF80620080420080420080720000300F4
:104520000000000000000000000E000E6E001FF3EF
:104530000031B10020B10020B1003191001F130003
:104540002E1E00200E00300000000004000807FFAF
:10455000F80FFFF8001008002000002000002008DD
:10456000003FF8001FF800000800000000000000F5
:104570000000002008002008002008063FF8063F41
:10458000F80000080000080000080000000000001B
:1045900000000000000000000300000300200100F4
:1045A0002001002003063FFE063FFC000000000043
:1045B0000000000000000004000807FFF80FFFF8EB
:1045C000000188000300002FC00038F800203800E8
:1045D00020080000080000000000000000000400A7
:1045E0000804000804000807FFF80FFFF80000089F
:1045F0000000080000080000000000000020080083
:104600003FF8003FF8001008002000003FF8003F8E
:10461000F8001008002000003FF8003FF8000008F4
:10462000000000002008003FF8003FF800100800DC
:104630001000002000002008003FF8001FF80000D4
:10464000080000000000000007C0000FF000183054
:104650000030080020080020080030080018300052
:104660000FF00007C0000000000000002001003F24
:10467000FF003FFF00101100200900200800200863
:10468000003038001FF0000FC000000000000000E4
:1046900007C0001FF0003818002008002008002084
:1046A00009001011001FFF003FFF00000100000083
:1046B000002008002008002008003FF8003FF80014
:1046C000080800100800200800200000300000301A
:1046D00000000000000000000000000C78001E1820
:1046E00000330800230800210800218800219800D9
:1046F00030F00038600000000000000020000020C2
:104700000000200000FFF003FFF800200800200850
:104710000020080000300000000000000000000041
:104720002000003FF0007FF80000180000080000A3
:1047300008002010003FF8007FF00000100000008B
:10474000000000002000003000003C00003F80001E
:1047500023F0000078000070002380003C0000304F
:1047600000002000002000003C00003FE00023F893
:104770000000E0002700003E00003FE00021F800BC
:1047800001E0003E000020000000000020080020A2
:1047900008003838003E680027800003C8002CF865
:1047A0000038380020180020080000000000000039
:1047B0002000003003003C01003F830023EC000098
:1047C00070002380003C000020000020000000005A
:1047D0000000000000000038080020380020F80029
:1047E00023E8002F88003E08003808002018000049
:1047F0007000000000000000000000000000000049
:104800000000000008000014001FF7FC3000062024
:104810000002000000000000000000000000000096
:1048200000000000000000000000FFFFFF0000008B
:104830000000000000000000000000000000000078
:1048400000002000023000061FF7FC0014000008E2
:104850000000000000000000000000000000000058
:104860000000001800006000004000004000002030
:1048700000001000000800000400000400000C000C
:10488000001000003FC0248024802480FFE024909A
:10489000249024903F90001000700000110016003A
:1048A000FFF0141002207FC0400040007FE00010A5
:1048B0000070000020801100FFF000000810086068
:1048C0000B80FC000B80486028100000222022C0D2
:1048D000240028E03010E51032D028102430228047
:1048E00022600000000000000CC00CC000000000AE
:1048F0000000000000000000000000001010106028
:10490000FF80101010101FE000003FF0202020203A
:104910003FF00000204010903FE020002BC02A40D4
:104920002BD02020FFC021A0A670000088104FE0EF
:1049300000105E5052905310FFF0531052905E5092
:10494000401000000010401047F0401040107FF071
:1049500042104210421042100010000000107FE090
:1049600048104E10492048A0884088A089208E1009
:10497000001000002E40F2402FF00280240027405B
:104980003D40E52025602590040000000100410124
:104990004102410C7FF041004100410041004100D3
:1049A0007FFF4100410041000100000000000004C1
:1049B0001808683108C10B011D82E9620914090851
:1049C0000914492229C2080100010000082008C07A
:1049D0000B00FFFF090008C100063FF824012782F1
:1049E00024644418C46447820001000000000000F1
:1049F0000000000002080802080804080808080867
:104A0000100808E00FFF80080800080800080800E8
:104A10000808000808000808000FFFFE0FFFFE0846
:104A20000800080800100800101000003000000006
:104A300000000000000000000002000004018008E7
:104A40000F00101C80600081C200870200FC021F62
:104A5000F0043C9C08209208009190009070009017
:104A6000602091901093181C9C080C980C008004F6
:104A70000100060100040000040000000000000026
:104A800000C0010100010E0001F8003FFFFE2120DF
:104A900000011002020C0E0000120007E40FFE04D9
:104AA0000840080878100847300841E01041E0103D
:104AB0004730307C1830E00C10000C00000400007F
:104AC00000000000000000000000000000000000E6
:104AD00000000000000000000000000000000000D6
:104AE0000000000004002410241224217FFEC44092
:104AF000448204020404FFC804304428344405827C
:104B0000041F000000000000000000000000000082
:104B10000000000000000000000000000000000095
:104B20000000000000000000000000000000000085
:104B30000000000000000000000000000000000075
:104B40000000000000000000000000000000000065
:1056A00000000000C4560008000000204000000078
:1056B0002C25000804570008400000209009000035
:1056C0003C2500080024F400000000000000000059
:1056D00000000000000000000000000000000000CA
:1056E00000000000000000000000000000000000BA
:1056F00000000000000000000000000000000000AA
:0457000000000000A5
:040000050800018965
:00000001FF
